:020000040800F2
:10000000880600208901000809080008BF050008CB
:100010000508000843020008271600080000000039
:10002000000000000000000000000000010E0008B9
:100030004702000800000000E90C0008CD0F00088E
:10004000A3010008A3010008A3010008A301000800
:10005000A3010008A3010008A30100089102000801
:10006000A3010008A3010008CD020008A3010008B5
:10007000A3010008A3010008A3010008A3010008D0
:10008000A3010008A3010008A3010008A3010008C0
:10009000A3010008A3010008A30100081103000840
:1000A000A3010008A3010008A3010008A3010008A0
:1000B000A3010008A3010008A3010008A301000890
:1000C000A3010008A3010008A3010008A301000880
:1000D000A3010008A3010008A30100087113000890
:1000E000A3010008A3010008A301000800F002F822
:1000F00000F03AF80AA090E8000C82448344AAF188
:100100000107DA4501D100F02FF8AFF2090EBAE885
:100110000F0013F0010F18BFFB1A43F0010318473B
:10012000C81F0000E81F0000103A24BF78C878C13B
:10013000FAD8520724BF30C830C144BF04680C60ED
:10014000704700000023002400250026103A28BF35
:1001500078C1FBD8520728BF30C148BF0B60704739
:100160001FB51FBD10B510BD00F031F81146FFF7E7
:10017000F7FF01F05BFA00F04FF803B4FFF7F2FF6E
:1001800003BC00F057F800000948804709480047C1
:10019000FEE7FEE7FEE7FEE7FEE7FEE7FEE7FEE737
:1001A000FEE7FEE704480549054A064B7047000094
:1001B000D10F0008ED00000888000020880600200C
:1001C00088020020880200207047704770477546FB
:1001D00000F02CF8AE4605006946534620F00700B3
:1001E000854618B020B5FFF7DDFFBDE820404FF091
:1001F00000064FF000074FF000084FF0000B21F011
:100200000701AC46ACE8C009ACE8C009ACE8C009DD
:10021000ACE8C0098D46704710B50446AFF30080C6
:100220002046BDE81040FFF7A8BF00000048704717
:100230002800002001491820ABBEFEE7260002007E
:10024000704700BFFEE7704700B5034603E04FF478
:100250007A7000F005F8181EA3F10103F7D100BD74
:1002600000EBC001C9004FF0E02251610021916113
:100270000521116100BF4FF0E021096901F48031CF
:100280000029F8D004214FF0E022116170470000EE
:1002900010B502210B4800F084F990B91420FFF743
:1002A000D3FF00BF0221074800F07BF90028F9D0F6
:1002B0001420FFF7C9FF022000F078F8052002495A
:1002C000088010BD000C01402000002010B5102156
:1002D0000D4800F066F990B91420FFF7B5FF00BF94
:1002E0001021094800F05DF90028F9D01420FFF72B
:1002F000ABFF102000F05AF80120044908801020BC
:1003000000F054F810BD000000080140200000205B
:1003100010B54021234800F044F990B91420FFF7AC
:1003200093FF00BF40211F4800F03BF90028F9D09F
:100330001420FFF789FF402000F038F803201A4905
:1003400008808021174800F02CF990B91420FFF79D
:100350007BFF00BF8021134800F023F90028F9D06B
:100360001420FFF771FF802000F020F804200E49D0
:10037000088020210B4800F014F990B91420FFF7F1
:1003800063FF00BF2021074800F00BF90028F9D0D7
:100390001420FFF759FF202000F008F8022002493E
:1003A000088010BD000801402000002001490860BD
:1003B0007047000014040140002123498279002A7B
:1003C0003AD00A46126803689A430B461A600A1D1F
:1003D000126803689A430B1D1A60027911440A6877
:1003E00003681A430A60184A0832126803689A437D
:1003F000154B08331A601A1D126803689A43124B92
:100400000C331A604279102A0ED11A1F1268036841
:100410001A430D4B08331A601A1D126803681A43F9
:10042000094B0C331A600DE00749427911440A6800
:1004300003681A430A6005E0027911440A680368F8
:100440009A430A60704700000004014030B5002262
:100450008B071C0F0F2303FA04F20B4B8C1053F87D
:1004600024309343084C8D1044F8253023468C10DB
:1004700053F824308C07240F00FA04F42343024C71
:100480008D1044F8253030BD080001402DE9F041C1
:10049000024600250026002000230024002791F8B2
:1004A00003C00CF00F0591F803C00CF0100CBCF168
:1004B000000F03D091F802C04CEA050591F800C086
:1004C000BCF1000F31D0146800202BE04FF0010C7C
:1004D0000CFA00F3B1F800C00CEA03069E4220D1EA
:1004E00083004FF00F0C0CFA03F7BC4305FA03FC32
:1004F0004CEA040491F803C0BCF1280F06D14FF078
:10050000010C0CFA00FCC2F814C00AE091F803C018
:10051000BCF1480F05D14FF0010C0CFA00FCC2F8F9
:1005200010C0401C0828D1D31460B1F800C0BCF141
:10053000FF0F34DD546800202EE000F1080C4FF06E
:10054000010808FA0CF3B1F800C00CEA03069E4259
:1005500021D183004FF00F0C0CFA03F7BC4305FACE
:1005600003FC4CEA040491F803C0BCF1280F05D148
:1005700000F1080C08FA0CF8C2F8148091F803C0D6
:10058000BCF1480F07D100F1080C4FF0010808FA40
:100590000CF8C2F81080401C0828CED35460BDE887
:1005A000F0810246002093680B400BB1012000E06F
:1005B000002070470AB1016100E04161704700BF4F
:1005C000FEE700001FB50121102000F09FFB48202E
:1005D0008DF803000720ADF8000003208DF802001D
:1005E00069466348FFF752FF0121052000F08EFBAA
:1005F0000121052000F08AFB0121052000F086FB87
:100600000121092000F082FB0121052000F07EFB82
:1006100000F0FBF848208DF80F004020ADF80C00EA
:1006200006210020FFF712FF4020019000208DF8E6
:1006300008000C208DF8090001208DF80A0001A89F
:10064000FFF7BAFE03A94B48FFF720FF0121052061
:1006500000F05CFB4020ADF80C0003A94548FFF713
:1006600015FF06210020FFF7F1FE40200190002039
:100670008DF808000C208DF8090001208DF80A0083
:1006800001A8FFF799FE0121052000F03FFB802023
:10069000ADF80C0003A93748FFF7F8FE072100204A
:1006A000FFF7D4FE8020019000208DF808000C2078
:1006B0008DF8090001208DF80A0001A8FFF77CFEE3
:1006C0000121052000F022FB1020ADF80C0003A949
:1006D0002848FFF7DBFE04210020FFF7B7FE1020BB
:1006E000019000208DF808000C208DF809000120F1
:1006F0008DF80A0001A8FFF75FFE0121092000F034
:1007000005FB0220ADF80C0003A91B48FFF7BEFE55
:1007100001210846FFF79AFE0220019000208DF883
:1007200008000C208DF8090001208DF80A0001A8AE
:10073000FFF742FE0121052000F0E8FA2020ADF885
:100740000C0003A90B48FFF7A1FE05210020FFF7CD
:100750007DFE2020019000208DF808000C208DF8EF
:10076000090001208DF80A0001A8FFF725FE1FBD32
:100770000010014000080140000C014010B50024A9
:1007800001211E48FFF70DFF68B91420FFF75CFD3B
:1007900000BF02211A48FFF704FF0028F9D01420F7
:1007A000FFF752FD062402211448FFF7FAFE70B944
:1007B0001420FFF749FD00BF4FF400611048FFF718
:1007C000F0FE0028F8D01420FFF73EFD0724042196
:1007D0000A48FFF7E6FE70B91420FFF735FD00BFA9
:1007E0004FF400610648FFF7DCFE0028F8D0142023
:1007F000FFF72AFD0824204610BD0000001001402C
:10080000000C014000BFFEE7704708B54FF4C06020
:1008100000F05EF817208DF8000001208DF801002F
:100820008DF802008DF80300684600F019F81720D3
:100830008DF80000684600F013F80A208DF80000DB
:10084000684600F00DF807208DF80000684600F0BB
:1008500007F817208DF80000684600F001F808BD81
:1008600070B5002100230F22C47804B3154C24680E
:1008700004F4E064C4F5E064210AC1F10403CA4051
:10088000447804FA03F184781440214309010E4CA2
:100890000678A155047804F01F050124AC400578C2
:1008A0006D11AD0005F1E025C5F8004109E00478BF
:1008B00004F01F050124AC40044D0678761145F87C
:1008C000264070BD0CED00E000E400E080E100E0B7
:1008D00002490143024A1160704700000000FA0516
:1008E0000CED00E070B500240EE00021204600F081
:1008F000F0F8002504E0002000F07CF9681CC5B287
:10090000802DF8DB601CC4B2082CEEDB70BD00004B
:1009100008B50121082000F0F9F914208DF8030032
:1009200003208DF802004FF48070ADF80000694696
:100930000A48FFF7ABFD4FF40070ADF800006946C0
:100940000648FFF7A3FD012211020448FFF732FE1B
:10095000012251020148FFF72DFE08BD000C0140A5
:1009600070B50546002415E08020204100EA05020C
:100970004FF400710E48FFF71DFE012211020C48D2
:10098000FFF718FE00224FF480710948FFF712FEAE
:10099000601CC4B2082CE7DB012211020448FFF7F7
:1009A00009FE00224FF480710148FFF703FE70BD7D
:1009B000000C014010B5012251020A48FFF7FAFD70
:1009C000012211020748FFF7F5FD00224FF40071E4
:1009D0000448FFF7EFFD00224FF480710148FFF754
:1009E000E9FD10BD000C014010B500224FF400716C
:1009F0000648FFF7DFFD012211020448FFF7DAFD88
:100A0000012251020148FFF7D5FD10BD000C014045
:100A100070B5002406E0002500E06D1CB5F57A7F76
:100A2000FBD3641CB4F57A7FF5D3FFF771FFAE20DA
:100A300000F0D0F8D52000F0CDF8802000F0CAF802
:100A4000A82000F0C7F83F2000F0C4F8D32000F041
:100A5000C1F8002000F0BEF8402000F0BBF8A12053
:100A600000F0B8F8C82000F0B5F8DA2000F0B2F8CD
:100A7000122000F0AFF8812000F0ACF8CF2000F099
:100A8000A9F8D92000F0A6F8F12000F0A3F8DB20A7
:100A900000F0A0F8302000F09DF8A42000F09AF8B3
:100AA000A62000F097F88D2000F094F8142000F0B4
:100AB00091F8AF2000F08EF8FFF714FF70BD10B56D
:100AC0000246012000E050430B1EA1F10101FAD1C2
:100AD00010BD70B505460C4645F0B00000F07AF840
:100AE000102141EA141000F075F804F00F0000F036
:100AF00071F870BD2DE9F04105460E461746721E8D
:100B0000D206110E6A1E5206100EFFF7E2FF0024F5
:100B100009E0A7F12001134A02EB0111085D00F082
:100B200069F8601CC4B2082CF3DB721ED206110EE9
:100B30006A1E012303EB4202D0B2FFF7CAFF002472
:100B40000BE0A7F12001074A02EB011204F10801B2
:100B5000505C00F04FF8601CC4B2082CF1DBBDE81B
:100B6000F0810000F81A00082DE9F04780460E4693
:100B700017461D46002415E0281B411E0A20FFF7DA
:100B80009EFFB7FBF0F00A21B0FBF1F201FB12006F
:100B900000F130093019C1B24A464046FFF7AAFFBA
:100BA000601CC4B2AC42E7DBBDE8F0872DE9F04140
:100BB00007460E461546002407E02A5D3019C1B2EB
:100BC0003846FFF797FF601CC4B2285D0028F4D1B7
:100BD000BDE8F08110B50446FFF7ECFE7820FFF782
:100BE000BFFE0020FFF7BCFE2046FFF7B9FEFFF76F
:100BF000FBFE10BD10B50446FFF7DCFE7820FFF7C2
:100C0000AFFE4020FFF7ACFE2046FFF7A9FEFFF73E
:100C1000EBFE10BD00B589B00121084600F066F872
:100C20000121042000F072F818208DF823000F2015
:100C3000ADF8200003208DF8220008A92148FFF715
:100C400025FC4FF0804000F0FFF90020ADF81A00BD
:100C5000ADF8160044F61F60ADF818004720ADF857
:100C6000140000208DF81C0005A94FF0804000F012
:100C70002DFB01A800F01AFB6020ADF80400002055
:100C8000ADF80C000120ADF806000020ADF80A0018
:100C900001A94FF0804000F0DDF901A94FF080403C
:100CA00000F024FA01A94FF0804000F071FA01A988
:100CB0004FF0804000F0BCFA0121880700F0B8F93D
:100CC00009B000BD0008014010B5044621464FF0B0
:100CD000804000F0F5FA10BD10B5044621464FF0F3
:100CE000804000F0EFFA10BD7047000029B1064ABD
:100CF000D2690243044BDA6104E0034AD2698243B9
:100D0000014BDA61704700000010024029B1064A29
:100D100092690243044B9A6104E0034A9269824358
:100D2000014B9A61704700000010024030B500216D
:100D30000022002400232D4D6D6805F00C0121B127
:100D4000042905D0082923D105E0294D056022E0BA
:100D5000274D05601FE0254D6D6805F47012234D89
:100D60006D6805F48034022505EB92421CB9214DD3
:100D7000554305600BE01D4D6D6805F400351DB150
:100D80001C4D5543056002E0194D5543056002E0D6
:100D9000174D056000BF00BF144D6D6805F0F001F0
:100DA0000909154D6B5C0568DD4045600F4D6D68A8
:100DB00005F4E061090A104D6B5C4568DD40856013
:100DC0000A4D6D6805F46051C90A0B4D6B5C4568AE
:100DD000DD40C560054D6D6805F44041890B074D48
:100DE0006B5CC568B5FBF3F5056130BD00100240D2
:100DF00000127A0000093D000000002010000020D1
:100E00007047000005480078012804D100200349FC
:100E10000870012070470020FCE700001C00002043
:100E200000B587B001218804FFF760FF0121082089
:100E3000FFF76CFF18208DF81B004FF48060ADF8B1
:100E4000180003208DF81A0006A92448FFF71EFB9E
:100E500048208DF81B004FF40060ADF81800032007
:100E60008DF81A0006A91D48FFF710FB4FF4E1307A
:100E700002900020ADF814000C20ADF81200002004
:100E8000ADF81000ADF80E00ADF80C0002A9144842
:100E900000F058FB012240F22551114800F02CFBD4
:100EA0004FF4A060FFF714FD27208DF80400012007
:100EB0008DF8070000208DF8050002208DF806004F
:100EC00001A8FFF7CDFC0121054800F0DFFA402121
:100ED000034800F0C3FA07B000BD0000000C014059
:100EE0000048004010B500F001F810BD0CB500201E
:100EF000019000903348006840F480303149086028
:100F000000BF3048006800F4003000900198401C99
:100F10000190009818B90198B0F5A06FF1D1294857
:100F2000006800F4003010B10120009001E00020C2
:100F300000900098012843D12348006840F0100039
:100F4000214908600846006820F003000860084650
:100F5000006840F0020008601A484068194948607B
:100F60000846406848600846406840F48060486031
:100F70000846406820F47C1048600846406840F409
:100F8000E81048600846006840F08070086000BFC4
:100F90000C48006800F000700028F9D0094840684B
:100FA00020F00300074948600846406840F002000E
:100FB000486000BF0348406800F00C000828F9D1E1
:100FC0000CBD0000001002400020024070470000ED
:100FD00010B51348006840F0010011490860084648
:100FE0004068104908400E494860084600680E49AC
:100FF00008400B4908600846006820F4802008601B
:101000000846406820F4FE0048604FF41F008860E6
:10101000FFF768FF4FF000600449086010BD000052
:10102000001002400000FFF8FFFFF6FE08ED00E0B0
:1010300021B1028842F00102028004E002884FF6EA
:10104000FE731A400280704701894FF6F872114012
:101050000181704770B5002400220023058C4FF6F3
:10106000FE7635400584028C8388048B4FF68F759D
:101070002C40B51E2C400D882C43751E2A400D892E
:101080002A434D882A43144DA8420BD0134DA84241
:1010900008D0134DA84205D0124DA84202D0124DDF
:1010A000A84213D14FF6F7752A404D892A434FF6CF
:1010B000FB752A408D882A434FF6FF652B404FF67B
:1010C000FF552B408D892B43CD892B43838004838F
:1010D000CD888586028470BD002C0140003401401B
:1010E00000400140004401400048014070B5002428
:1010F00000220023058C4FF6EF7635400584028CE4
:101100008388048B48F6FF752C404FF6FF452C4032
:101110000D884FF6FF7606EA05252C434FF6DF755E
:101120002A400D8906EA05152A434D8806EA051569
:101130002A43154DA84202D0144DA8421DD14FF6A6
:101140007F752A404D894FF6FF7606EA05152A433A
:101150004FF6BF752A408D8806EA05152A434FF6DB
:10116000FF352B404FF2FF752B408D8906EA850530
:101170002B43CD8906EA85052B4383800483CD88E4
:101180000587028470BD0000002C0140003401403E
:1011900070B5002400220023058C4FF6FF66354011
:1011A0000584028C8388848B4FF68F752C404FF614
:1011B000FC752C400D882C434FF6FF552A400D89B5
:1011C0004FF6FF7606EA05252A434D8806EA0525EF
:1011D0002A43154DA84202D0144DA8421DD14FF20A
:1011E000FF752A404D894FF6FF7606EA05252A430A
:1011F0004FF6FF352A408D8806EA05252A434EF62C
:10120000FF752B404DF6FF752B408D8906EA0515BD
:101210002B43CD8906EA05152B4383808483CD8833
:101220008587028470BD0000002C0140003401401D
:1012300070B5002200230024058C4EF6FF76354061
:101240000584038C8488828B48F6FF752A404FF60C
:10125000FF452A400D884FF6FF7606EA05252A430A
:101260004DF6FF752B400D8906EA05352B434D8859
:1012700006EA05352B430B4DA84202D00A4DA84281
:1012800008D14BF6FF752C408D894FF6FF7606EAA4
:1012900085152C4384808283CD88A0F84050038438
:1012A00070BD0000002C014000340140002101808D
:1012B00041808180C180018141818181C1817047EC
:1012C00081877047A0F84010704700000022028814
:1012D0001D4B98420ED01D4B98420BD0B0F1804F61
:1012E00008D01B4B984205D01A4B984202D01A4B9B
:1012F000984204D14FF68F731A404B881A43174B0C
:10130000984207D0164B984204D04FF6FF431A403C
:10131000CB881A4302808B8883850B8803850A4B10
:1013200098420BD0094B984208D00E4B984205D0FA
:101330000D4B984202D00D4B984201D10B7A038697
:101340000123838270470000002C014000340140DB
:101350000004004000080040000C00400010004065
:10136000001400400040014000440140004801409A
:1013700010B540F22551344800F094F8012861D1AD
:1013800040F22551304800F072F82F4800F046F93D
:10139000C4B22E48007840B9FF2C52D101202B490D
:1013A000087000202A4908704BE02848007801287E
:1013B00010D1284826490978445425480078401C13
:1013C000234908700846007804283ADB02201F49A8
:1013D000087036E01D480078022832D1FE2C30D14A
:1013E000002240F22551184800F086F8194802788A
:1013F000032306211846FFF7B7FB1648427803235C
:101400000A211846FFF7B0FB124882780323062111
:101410000420FFF7A9FB0F48C27803230A21042008
:10142000FFF7A2FB00200949087001200A49087053
:10143000002007490870012240F22551024800F0BF
:101440005BF800BF10BD0000004800401D000020F8
:101450001E000020180000201C00002001F4007273
:10146000B2F5007F00D100BFCA430280704710B5BB
:101470000022002340F66A14A14200D100BF0A12E4
:1014800001249440A3B2DC43048010BD21B18289C1
:1014900042F40052828104E082894DF6FF731A40C3
:1014A0008281704770B50246002400230025002089
:1014B00040F66A16B14200D100BFC1F3421501F0F7
:1014C0001F03012606FA03F3012D02D1968933404A
:1014D00006E0022D02D1168A334001E0968A33409D
:1014E0000C12012606FA04F41688344013B10CB12C
:1014F000012000E0002070BDF0B503460024002666
:101500000025002040F66A17B94200D100BF1846F6
:10151000C1F3421401F01F06012707FA06F5012C5A
:1015200001D10C3004E0022C01D1103000E0143065
:101530001AB107682F43076002E00768AF430760EE
:10154000F0BD00002DE9F04786B005460E460024A8
:10155000A24600BFA1460027B08900B100BF2F46B8
:101560002C8A4CF6FF700440F08804432C82AC892E
:101570004EF6F3100440B08831890843718908435E
:101580000443AC81AC8A4FF6FF400440B089044369
:10159000AC8201A8FFF7CAFB1F48874202D1DDF8E1
:1015A00010A001E0DDF80CA0A88900F4004040B1D3
:1015B0000AEBCA0000EB0A1031684900B0FBF1F8F1
:1015C00007E00AEBCA0000EB0A1031688900B0FBA3
:1015D000F1F86420B8FBF0F004012009642101FB5C
:1015E0001089A88900F4004040B1322000EBC90006
:1015F000B0FBF1F000F00700044308E0322000EBFC
:1016000009106421B0FBF1F000F00F0004432C81BD
:1016100006B0BDE8F0870000003801400146888828
:10162000C0F30800704700BFFEE70000FFF7F2FAC2
:10163000FEF7C8FFFFF7E9F8FFF7EAF9FFF7F0FB5D
:10164000F9A201210220FFF7B1FAF8480088FFF75C
:1016500043FBF7480088FFF737FB45E2FFF78EF8BA
:10166000F44908800846008818B108460088F24905
:101670000880F1480088012813D14FF4E360EB495A
:10168000088040F2D630EA490880E8480088FFF731
:1016900023FBE7480088FFF717FB0020E649088096
:1016A00022E2E5480088022813D1E1480088401F63
:1016B000DF49088008460088FFF706FB0223DE4862
:1016C000028804211846FFF74FFA0020DA49088003
:1016D0000AE2D9480088032813D1D5480088401D64
:1016E000D349088008460088FFF7EEFA0223D24863
:1016F000028804211846FFF737FA0020CE490880F7
:10170000F2E1CD480088042813D1C8480088401D64
:10171000C649088008460088FFF7DEFA0223C6485B
:10172000028804211846FFF71FFA0020C2490880EA
:10173000DAE1C1480088052813D1BC480088401F61
:10174000BA49088008460088FFF7C6FA0223BA485B
:10175000028804211846FFF707FA0020B6490880DE
:10176000C2E1B548008806287DD10223B24802882C
:1017700004211846FFF7F8F940F2D630FFF7A4FA33
:1017800040F23470FFF7A8FA40F2D630FFF79CFA27
:1017900040F23470FFF7A0FA4FF4FA70FEF754FDF0
:1017A0004FF45270FFF790FA40F2A470FFF794FAEA
:1017B0004FF4FA70FEF748FD40F25B30FFF784FA11
:1017C00040F21C70FFF788FA4FF4FA70FEF73CFD08
:1017D00040F25B30FFF778FA40F28F60FFF77CFA57
:1017E0004FF4FA70FEF730FD40F2D630FFF76CFA96
:1017F00040F28F60FFF770FA4FF4FA70FEF724FDA5
:101800004FF48C60FFF760FA40F28F60FFF764FAE4
:101810004FF4FA70FEF718FD4FF48C60FFF754FA9E
:1018200040F21C70FFF758FA4FF4FA70FEF70CFD07
:1018300040F25140FFF748FA40F2AE70FFF74CFA21
:101840004FF4FA70FEF700FD40F2D630FFF73CFA95
:1018500040F2A470FFF740FA4FF4FA70FEF7F4FC80
:101860004FF4527000E019E0FFF72EFA40F29C703E
:10187000FFF732FA4FF4FA70FEF7E6FC40F2D6308A
:10188000FFF722FA4FF4E460FFF726FA4FF4FA70FC
:10189000FEF7DAFC00206849088025E166480088E8
:1018A00007287DD102236448028804211846FFF7E7
:1018B0005BF940F2D630FFF707FA4FF4E460FFF728
:1018C0000BFA4FF4FA70FEF7BFFC40F2B630FFF7A8
:1018D000FBF94FF4EB60FFF7FFF94FF4FA70FEF7F6
:1018E000B3FC40F2A230FFF7EFF940F26C70FFF763
:1018F000F3F94FF4FA70FEF7A7FC40F2A230FFF7BD
:10190000E3F94FF4E460FFF7E7F94FF4FA70FEF7FC
:101910009BFC40F2A230FFF7D7F940F2C760FFF717
:10192000DBF94FF4FA70FEF78FFC40F2D630FFF788
:10193000CBF940F2C760FFF7CFF94FF4FA70FEF72A
:1019400083FC40F20C40FFF7BFF940F2C760FFF79D
:10195000C3F94FF4FA70FEF777FC40F20C40FFF742
:10196000B3F94FF4E460FFF7B7F94FF4FA70FEF7FC
:101970006BFC40F20B40FFF7A7F940F26C70FFF7E9
:10198000ABF94FF4FA70FEF75FFC40F2D630FFF788
:101990009BF940F26C70FFF79FF94FF4FA7000E08A
:1019A00025E0FEF751FC40F2A230FFF78DF940F23E
:1019B0006C70FFF791F94FF4FA70FEF745FC40F2B6
:1019C000D630FFF781F94FF4E360FFF785F940F275
:1019D000D630FFF779F94FF4E360FFF77DF94FF464
:1019E000FA70FEF731FC0020134908807CE01248B1
:1019F0000088082878D102230F480288042118465D
:101A0000FFF7B2F800BFFFF7FDF90028FBD00B4845
:101A10000078012814D109484078E8B103480088CB
:101A2000401E0249088017E0783A00002400002098
:101A300026000020220000202000002018000020A6
:101A40002A480078022807D12848407820B1284841
:101A50000088401C2649088024488078012808D145
:101A60002248C07888B123480088401C214908805A
:101A70000BE01E488078022807D11C48C07820B1AE
:101A80001C480088401E1B4908801948008840F205
:101A9000BC71884202DB084615490880144800885A
:101AA00040F21451884202DC08461149088011486E
:101AB000008840F29C41884202DB08460D490880BC
:101AC0000C48008840F2A121884202DC08460949FE
:101AD000088008480088FFF7F7F805480088FFF7F6
:101AE000FBF81E20FEF7B0FBB8E500001800002050
:101AF000240000202600002000000000000000005C
:101B00000000000000000000000000F800000000DD
:101B1000000000333000000000100C06100C06001E
:101B2000000000000000000040C07840C078400085
:101B3000043F04043F040400007088FC08300000E7
:101B4000001820FF211E0000F008F000E01800003F
:101B500000211C031E211E0000F0088870000000F8
:101B60001E2123241927211010160E00000000004A
:101B70000000000000000000000000E01804020067
:101B8000000000071820400000020418E0000000D8
:101B90000040201807000000404080F080404000D6
:101BA0000202010F01020200000000F0000000002C
:101BB0000101011F01010100000000000000000000
:101BC00080B0700000000000000000000000000075
:101BD00000010101010101010000000000000000FE
:101BE0000030300000000000000000008060180499
:101BF000006018060100000000E010080810E00076
:101C0000000F102020100F00001010F8000000003E
:101C10000020203F20200000007008080888700085
:101C20000030282422213000003008888848300005
:101C30000018202020110E000000C02010F8000025
:101C400000070424243F240000F8088888080800BE
:101C50000019212020110E0000E0108888180000D3
:101C6000000F112020110E0000380808C8380800A5
:101C70000000003F00000000007088080888700025
:101C8000001C222121221C0000E010080810E000A6
:101C90000000312222110F00000000C0C00000002F
:101CA0000000003030000000000000800000000054
:101CB000000080600000000000008040201008004C
:101CC0000001020408102000404040404040400015
:101CD00004040404040404000008102040800000F0
:101CE0000020100804020100007048080808F000F5
:101CF0000000003036010000C030C828E810E000C5
:101D00000718272423140B000000C038E00000004F
:101D1000203C23020227382008F8888888700000B9
:101D2000203F202020110E00C0300808080838008D
:101D3000071820202010080008F808080810E00004
:101D4000203F202020100F0008F88888E8081000A5
:101D5000203F20202320180008F88888E808100079
:101D6000203F200003000000C030080808380000B1
:101D700007182020221E020008F808000008F808B2
:101D8000203F210101213F20000808F80808000039
:101D90000020203F2020000000000808F80808006C
:101DA000C08080807F00000008F888C028180800E4
:101DB000203F20012638200008F80800000000001D
:101DC000203F20202020300008F8F800F8F8080014
:101DD000203F003F003F200008F830C00008F8080E
:101DE000203F200007183F00E01008080810E0001E
:101DF0000F10202020100F0008F808080808F00035
:101E0000203F210101010000E01008080810E00057
:101E10000F18242438504F0008F8888888887000EC
:101E2000203F2000030C302000708808080838008C
:101E30000038202121221C00180808F80808180082
:101E40000000203F2000000008F808000008F80803
:101E5000001F202020201F000878880000C83808B4
:101E6000000007380E010000F80800F80008F8002C
:101E7000033C0700073C03000818688080681808C6
:101E800020302C03032C30200838C800C838080044
:101E90000000203F2000000010080808C838080093
:101EA0002038262120201800000000FE0202020037
:101EB0000000007F40404000000C30C000000000E7
:101EC000000000010638C00000020202FE0000000F
:101ED000004040407F0000000000040202020400B5
:101EE00000000000000000000000000000000000F2
:101EF00080808080808080800002020400000000DA
:101F000000000000000000000000808080800000D1
:101F10000019242222223F2008F8008080000000BF
:101F2000003F112020110E00000000808080000082
:101F3000000E112020201100000000808088F80091
:101F4000000E112020103F200000808080800000C3
:101F5000001F222222221300008080F08888881827
:101F60000020203F20200000000080808080800032
:101F7000006B94949493600008F8008080800000C7
:101F8000203F210000203F200080989800000000A2
:101F90000020203F202000000000008098980000D2
:101FA00000C08080807F000008F8000080808000F2
:101FB000203F24022D302000000808F80000000017
:101FC0000020203F202000008080808080808000D2
:101FD000203F20003F20003F808000808080000064
:101FE000203F210000203F200000808080800000F2
:101FF000001F202020201F00808000808000000023
:1020000080FFA12020110E00000000808080800051
:10201000000E112020A0FF80808080008080800042
:1020200020203F212000010000008080808080006F
:102030000033242424241900008080E080800000E4
:102040000000001F20200000808000000080800031
:10205000001F202020103F20808080000080808092
:1020600000010E3008060100808000800080808022
:102070000F300C030C300F00008080008080800047
:102080000020312E0E312000808080000080808072
:1020900080818E7018060100008080808080800022
:1020A0000021302C2221300000000000807C020240
:1020B00000000000003F404000000000FF00000062
:1020C00000000000FF0000000002027C8000000011
:1020D0000040403F0000000000060101020204042D
:1020E000000000000000000008210008000000209F
:1020F00028000000280100083021000828000020E6
:102100006006000044010008000000000102030412
:102110000102030406070809020406080000000083
:102120000000000000000000000000001807D603B7
:04000005080000ED02
:00000001FF
